{
  "contractName": "TreeSpotNFT",
  "abi": [
    {
      "inputs": [],
      "stateMutability": "nonpayable",
      "type": "constructor"
    },
    {
      "anonymous": false,
      "inputs": [
        {
          "indexed": true,
          "internalType": "address",
          "name": "owner",
          "type": "address"
        },
        {
          "indexed": true,
          "internalType": "address",
          "name": "approved",
          "type": "address"
        },
        {
          "indexed": true,
          "internalType": "uint256",
          "name": "tokenId",
          "type": "uint256"
        }
      ],
      "name": "Approval",
      "type": "event"
    },
    {
      "anonymous": false,
      "inputs": [
        {
          "indexed": true,
          "internalType": "address",
          "name": "owner",
          "type": "address"
        },
        {
          "indexed": true,
          "internalType": "address",
          "name": "operator",
          "type": "address"
        },
        {
          "indexed": false,
          "internalType": "bool",
          "name": "approved",
          "type": "bool"
        }
      ],
      "name": "ApprovalForAll",
      "type": "event"
    },
    {
      "anonymous": false,
      "inputs": [
        {
          "indexed": true,
          "internalType": "address",
          "name": "from",
          "type": "address"
        },
        {
          "indexed": true,
          "internalType": "address",
          "name": "to",
          "type": "address"
        },
        {
          "indexed": true,
          "internalType": "uint256",
          "name": "tokenId",
          "type": "uint256"
        }
      ],
      "name": "Transfer",
      "type": "event"
    },
    {
      "inputs": [
        {
          "internalType": "address",
          "name": "to",
          "type": "address"
        },
        {
          "internalType": "uint256",
          "name": "tokenId",
          "type": "uint256"
        }
      ],
      "name": "approve",
      "outputs": [],
      "stateMutability": "nonpayable",
      "type": "function"
    },
    {
      "inputs": [
        {
          "internalType": "address",
          "name": "owner",
          "type": "address"
        }
      ],
      "name": "balanceOf",
      "outputs": [
        {
          "internalType": "uint256",
          "name": "",
          "type": "uint256"
        }
      ],
      "stateMutability": "view",
      "type": "function"
    },
    {
      "inputs": [
        {
          "internalType": "uint256",
          "name": "tokenId",
          "type": "uint256"
        }
      ],
      "name": "getApproved",
      "outputs": [
        {
          "internalType": "address",
          "name": "",
          "type": "address"
        }
      ],
      "stateMutability": "view",
      "type": "function"
    },
    {
      "inputs": [
        {
          "internalType": "address",
          "name": "owner",
          "type": "address"
        },
        {
          "internalType": "address",
          "name": "operator",
          "type": "address"
        }
      ],
      "name": "isApprovedForAll",
      "outputs": [
        {
          "internalType": "bool",
          "name": "",
          "type": "bool"
        }
      ],
      "stateMutability": "view",
      "type": "function"
    },
    {
      "inputs": [],
      "name": "name",
      "outputs": [
        {
          "internalType": "string",
          "name": "",
          "type": "string"
        }
      ],
      "stateMutability": "view",
      "type": "function"
    },
    {
      "inputs": [
        {
          "internalType": "uint256",
          "name": "tokenId",
          "type": "uint256"
        }
      ],
      "name": "ownerOf",
      "outputs": [
        {
          "internalType": "address",
          "name": "",
          "type": "address"
        }
      ],
      "stateMutability": "view",
      "type": "function"
    },
    {
      "inputs": [
        {
          "internalType": "address",
          "name": "from",
          "type": "address"
        },
        {
          "internalType": "address",
          "name": "to",
          "type": "address"
        },
        {
          "internalType": "uint256",
          "name": "tokenId",
          "type": "uint256"
        }
      ],
      "name": "safeTransferFrom",
      "outputs": [],
      "stateMutability": "nonpayable",
      "type": "function"
    },
    {
      "inputs": [
        {
          "internalType": "address",
          "name": "from",
          "type": "address"
        },
        {
          "internalType": "address",
          "name": "to",
          "type": "address"
        },
        {
          "internalType": "uint256",
          "name": "tokenId",
          "type": "uint256"
        },
        {
          "internalType": "bytes",
          "name": "_data",
          "type": "bytes"
        }
      ],
      "name": "safeTransferFrom",
      "outputs": [],
      "stateMutability": "nonpayable",
      "type": "function"
    },
    {
      "inputs": [
        {
          "internalType": "address",
          "name": "operator",
          "type": "address"
        },
        {
          "internalType": "bool",
          "name": "approved",
          "type": "bool"
        }
      ],
      "name": "setApprovalForAll",
      "outputs": [],
      "stateMutability": "nonpayable",
      "type": "function"
    },
    {
      "inputs": [
        {
          "internalType": "bytes4",
          "name": "interfaceId",
          "type": "bytes4"
        }
      ],
      "name": "supportsInterface",
      "outputs": [
        {
          "internalType": "bool",
          "name": "",
          "type": "bool"
        }
      ],
      "stateMutability": "view",
      "type": "function"
    },
    {
      "inputs": [],
      "name": "symbol",
      "outputs": [
        {
          "internalType": "string",
          "name": "",
          "type": "string"
        }
      ],
      "stateMutability": "view",
      "type": "function"
    },
    {
      "inputs": [
        {
          "internalType": "uint256",
          "name": "index",
          "type": "uint256"
        }
      ],
      "name": "tokenByIndex",
      "outputs": [
        {
          "internalType": "uint256",
          "name": "",
          "type": "uint256"
        }
      ],
      "stateMutability": "view",
      "type": "function"
    },
    {
      "inputs": [
        {
          "internalType": "address",
          "name": "owner",
          "type": "address"
        },
        {
          "internalType": "uint256",
          "name": "index",
          "type": "uint256"
        }
      ],
      "name": "tokenOfOwnerByIndex",
      "outputs": [
        {
          "internalType": "uint256",
          "name": "",
          "type": "uint256"
        }
      ],
      "stateMutability": "view",
      "type": "function"
    },
    {
      "inputs": [],
      "name": "totalSupply",
      "outputs": [
        {
          "internalType": "uint256",
          "name": "",
          "type": "uint256"
        }
      ],
      "stateMutability": "view",
      "type": "function"
    },
    {
      "inputs": [
        {
          "internalType": "address",
          "name": "from",
          "type": "address"
        },
        {
          "internalType": "address",
          "name": "to",
          "type": "address"
        },
        {
          "internalType": "uint256",
          "name": "tokenId",
          "type": "uint256"
        }
      ],
      "name": "transferFrom",
      "outputs": [],
      "stateMutability": "nonpayable",
      "type": "function"
    },
    {
      "inputs": [
        {
          "internalType": "string",
          "name": "text",
          "type": "string"
        }
      ],
      "name": "mint",
      "outputs": [],
      "stateMutability": "nonpayable",
      "type": "function"
    },
    {
      "inputs": [
        {
          "internalType": "uint256",
          "name": "tokenId",
          "type": "uint256"
        },
        {
          "internalType": "string",
          "name": "newLetter",
          "type": "string"
        }
      ],
      "name": "changeLetter",
      "outputs": [],
      "stateMutability": "nonpayable",
      "type": "function"
    },
    {
      "inputs": [
        {
          "internalType": "uint256",
          "name": "tokenId",
          "type": "uint256"
        }
      ],
      "name": "tokenURI",
      "outputs": [
        {
          "internalType": "string",
          "name": "",
          "type": "string"
        }
      ],
      "stateMutability": "view",
      "type": "function"
    }
  ],
  "bytecode": "0x60806040523480156200001157600080fd5b506040518060400160405280600b81526020017f5472656553706f744e46540000000000000000000000000000000000000000008152506040518060400160405280600381526020017f54534e0000000000000000000000000000000000000000000000000000000000815250816000908051906020019062000096929190620000b8565b508060019080519060200190620000af929190620000b8565b505050620001cd565b828054620000c69062000168565b90600052602060002090601f016020900481019282620000ea576000855562000136565b82601f106200010557805160ff191683800117855562000136565b8280016001018555821562000136579182015b828111156200013557825182559160200191906001019062000118565b5b50905062000145919062000149565b5090565b5b80821115620001645760008160009055506001016200014a565b5090565b600060028204905060018216806200018157607f821691505b602082108114156200019857620001976200019e565b5b50919050565b7f4e487b7100000000000000000000000000000000000000000000000000000000600052602260045260246000fd5b61331180620001dd6000396000f3fe608060405234801561001057600080fd5b50600436106101165760003560e01c80634f6ccce7116100a2578063a22cb46511610071578063a22cb46514610305578063b88d4fde14610321578063c87b56dd1461033d578063d85d3d271461036d578063e985e9c51461038957610116565b80634f6ccce7146102575780636352211e1461028757806370a08231146102b757806395d89b41146102e757610116565b80630bf28d74116100e95780630bf28d74146101b557806318160ddd146101d157806323b872dd146101ef5780632f745c591461020b57806342842e0e1461023b57610116565b806301ffc9a71461011b57806306fdde031461014b578063081812fc14610169578063095ea7b314610199575b600080fd5b6101356004803603810190610130919061238a565b6103b9565b6040516101429190612c49565b60405180910390f35b610153610433565b6040516101609190612c64565b60405180910390f35b610183600480360381019061017e919061241d565b6104c5565b6040516101909190612be2565b60405180910390f35b6101b360048036038101906101ae919061234e565b61054a565b005b6101cf60048036038101906101ca9190612446565b610662565b005b6101d96106e9565b6040516101e69190612ea6565b60405180910390f35b61020960048036038101906102049190612248565b6106f6565b005b6102256004803603810190610220919061234e565b610756565b6040516102329190612ea6565b60405180910390f35b61025560048036038101906102509190612248565b6107fb565b005b610271600480360381019061026c919061241d565b61081b565b60405161027e9190612ea6565b60405180910390f35b6102a1600480360381019061029c919061241d565b6108b2565b6040516102ae9190612be2565b60405180910390f35b6102d160048036038101906102cc91906121e3565b610964565b6040516102de9190612ea6565b60405180910390f35b6102ef610a1c565b6040516102fc9190612c64565b60405180910390f35b61031f600480360381019061031a9190612312565b610aae565b005b61033b60048036038101906103369190612297565b610c2f565b005b6103576004803603810190610352919061241d565b610c91565b6040516103649190612c64565b60405180910390f35b610387600480360381019061038291906123dc565b610de6565b005b6103a3600480360381019061039e919061220c565b610e95565b6040516103b09190612c49565b60405180910390f35b60007f780e9d63000000000000000000000000000000000000000000000000000000007bffffffffffffffffffffffffffffffffffffffffffffffffffffffff1916827bffffffffffffffffffffffffffffffffffffffffffffffffffffffff1916148061042c575061042b82610f29565b5b9050919050565b60606000805461044290613106565b80601f016020809104026020016040519081016040528092919081815260200182805461046e90613106565b80156104bb5780601f10610490576101008083540402835291602001916104bb565b820191906000526020600020905b81548152906001019060200180831161049e57829003601f168201915b5050505050905090565b60006104d08261100b565b61050f576040517f08c379a000000000000000000000000000000000000000000000000000000000815260040161050690612de6565b60405180910390fd5b6004600083815260200190815260200160002060009054906101000a900473ffffffffffffffffffffffffffffffffffffffff169050919050565b6000610555826108b2565b90508073ffffffffffffffffffffffffffffffffffffffff168373ffffffffffffffffffffffffffffffffffffffff1614156105c6576040517f08c379a00000000000000000000000000000000000000000000000000000000081526004016105bd90612e46565b60405180910390fd5b8073ffffffffffffffffffffffffffffffffffffffff166105e5611077565b73ffffffffffffffffffffffffffffffffffffffff16148061061457506106138161060e611077565b610e95565b5b610653576040517f08c379a000000000000000000000000000000000000000000000000000000000815260040161064a90612d46565b60405180910390fd5b61065d838361107f565b505050565b61066b826108b2565b73ffffffffffffffffffffffffffffffffffffffff163373ffffffffffffffffffffffffffffffffffffffff16146106a257600080fd5b6000600a600084815260200190815260200160002090508151816000015410156106cb57600080fd5b818160010190805190602001906106e3929190612007565b50505050565b6000600880549050905090565b610707610701611077565b82611138565b610746576040517f08c379a000000000000000000000000000000000000000000000000000000000815260040161073d90612e66565b60405180910390fd5b610751838383611216565b505050565b600061076183610964565b82106107a2576040517f08c379a000000000000000000000000000000000000000000000000000000000815260040161079990612c86565b60405180910390fd5b600660008473ffffffffffffffffffffffffffffffffffffffff1673ffffffffffffffffffffffffffffffffffffffff168152602001908152602001600020600083815260200190815260200160002054905092915050565b61081683838360405180602001604052806000815250610c2f565b505050565b60006108256106e9565b8210610866576040517f08c379a000000000000000000000000000000000000000000000000000000000815260040161085d90612e86565b60405180910390fd5b600882815481106108a0577f4e487b7100000000000000000000000000000000000000000000000000000000600052603260045260246000fd5b90600052602060002001549050919050565b6000806002600084815260200190815260200160002060009054906101000a900473ffffffffffffffffffffffffffffffffffffffff169050600073ffffffffffffffffffffffffffffffffffffffff168173ffffffffffffffffffffffffffffffffffffffff16141561095b576040517f08c379a000000000000000000000000000000000000000000000000000000000815260040161095290612d86565b60405180910390fd5b80915050919050565b60008073ffffffffffffffffffffffffffffffffffffffff168273ffffffffffffffffffffffffffffffffffffffff1614156109d5576040517f08c379a00000000000000000000000000000000000000000000000000000000081526004016109cc90612d66565b60405180910390fd5b600360008373ffffffffffffffffffffffffffffffffffffffff1673ffffffffffffffffffffffffffffffffffffffff168152602001908152602001600020549050919050565b606060018054610a2b90613106565b80601f0160208091040260200160405190810160405280929190818152602001828054610a5790613106565b8015610aa45780601f10610a7957610100808354040283529160200191610aa4565b820191906000526020600020905b815481529060010190602001808311610a8757829003601f168201915b5050505050905090565b610ab6611077565b73ffffffffffffffffffffffffffffffffffffffff168273ffffffffffffffffffffffffffffffffffffffff161415610b24576040517f08c379a0000000000000000000000000000000000000000000000000000000008152600401610b1b90612d06565b60405180910390fd5b8060056000610b31611077565b73ffffffffffffffffffffffffffffffffffffffff1673ffffffffffffffffffffffffffffffffffffffff16815260200190815260200160002060008473ffffffffffffffffffffffffffffffffffffffff1673ffffffffffffffffffffffffffffffffffffffff16815260200190815260200160002060006101000a81548160ff0219169083151502179055508173ffffffffffffffffffffffffffffffffffffffff16610bde611077565b73ffffffffffffffffffffffffffffffffffffffff167f17307eab39ab6107e8899845ad3d59bd9653f200f220920489ca2b5937696c3183604051610c239190612c49565b60405180910390a35050565b610c40610c3a611077565b83611138565b610c7f576040517f08c379a0000000000000000000000000000000000000000000000000000000008152600401610c7690612e66565b60405180910390fd5b610c8b84848484611472565b50505050565b6060610c9c8261100b565b610cdb576040517f08c379a0000000000000000000000000000000000000000000000000000000008152600401610cd290612dc6565b60405180910390fd5b6000600a60008481526020019081526020016000206002018054610cfe90613106565b80601f0160208091040260200160405190810160405280929190818152602001828054610d2a90613106565b8015610d775780601f10610d4c57610100808354040283529160200191610d77565b820191906000526020600020905b815481529060010190602001808311610d5a57829003601f168201915b505050505090506000610d886114ce565b9050600081511415610d9e578192505050610de1565b600082511115610dd3578082604051602001610dbb929190612bbe565b60405160208183030381529060405292505050610de1565b610ddc846114e5565b925050505b919050565b6000610df06106e9565b9050610e0c33826040518060200160405280600081525061158c565b60405180606001604052808351815260200183815260200160405180602001604052806000815250815250600a6000838152602001908152602001600020600082015181600001556020820151816001019080519060200190610e70929190612007565b506040820151816002019080519060200190610e8d929190612007565b509050505050565b6000600560008473ffffffffffffffffffffffffffffffffffffffff1673ffffffffffffffffffffffffffffffffffffffff16815260200190815260200160002060008373ffffffffffffffffffffffffffffffffffffffff1673ffffffffffffffffffffffffffffffffffffffff16815260200190815260200160002060009054906101000a900460ff16905092915050565b60007f80ac58cd000000000000000000000000000000000000000000000000000000007bffffffffffffffffffffffffffffffffffffffffffffffffffffffff1916827bffffffffffffffffffffffffffffffffffffffffffffffffffffffff19161480610ff457507f5b5e139f000000000000000000000000000000000000000000000000000000007bffffffffffffffffffffffffffffffffffffffffffffffffffffffff1916827bffffffffffffffffffffffffffffffffffffffffffffffffffffffff1916145b806110045750611003826115e7565b5b9050919050565b60008073ffffffffffffffffffffffffffffffffffffffff166002600084815260200190815260200160002060009054906101000a900473ffffffffffffffffffffffffffffffffffffffff1673ffffffffffffffffffffffffffffffffffffffff1614159050919050565b600033905090565b816004600083815260200190815260200160002060006101000a81548173ffffffffffffffffffffffffffffffffffffffff021916908373ffffffffffffffffffffffffffffffffffffffff160217905550808273ffffffffffffffffffffffffffffffffffffffff166110f2836108b2565b73ffffffffffffffffffffffffffffffffffffffff167f8c5be1e5ebec7d5bd14f71427d1e84f3dd0314c0f7b2291e5b200ac8c7c3b92560405160405180910390a45050565b60006111438261100b565b611182576040517f08c379a000000000000000000000000000000000000000000000000000000000815260040161117990612d26565b60405180910390fd5b600061118d836108b2565b90508073ffffffffffffffffffffffffffffffffffffffff168473ffffffffffffffffffffffffffffffffffffffff1614806111fc57508373ffffffffffffffffffffffffffffffffffffffff166111e4846104c5565b73ffffffffffffffffffffffffffffffffffffffff16145b8061120d575061120c8185610e95565b5b91505092915050565b8273ffffffffffffffffffffffffffffffffffffffff16611236826108b2565b73ffffffffffffffffffffffffffffffffffffffff161461128c576040517f08c379a000000000000000000000000000000000000000000000000000000000815260040161128390612e06565b60405180910390fd5b600073ffffffffffffffffffffffffffffffffffffffff168273ffffffffffffffffffffffffffffffffffffffff1614156112fc576040517f08c379a00000000000000000000000000000000000000000000000000000000081526004016112f390612ce6565b60405180910390fd5b611307838383611651565b61131260008261107f565b6001600360008573ffffffffffffffffffffffffffffffffffffffff1673ffffffffffffffffffffffffffffffffffffffff1681526020019081526020016000206000828254611362919061301c565b925050819055506001600360008473ffffffffffffffffffffffffffffffffffffffff1673ffffffffffffffffffffffffffffffffffffffff16815260200190815260200160002060008282546113b99190612f95565b92505081905550816002600083815260200190815260200160002060006101000a81548173ffffffffffffffffffffffffffffffffffffffff021916908373ffffffffffffffffffffffffffffffffffffffff160217905550808273ffffffffffffffffffffffffffffffffffffffff168473ffffffffffffffffffffffffffffffffffffffff167fddf252ad1be2c89b69c2b068fc378daa952ba7f163c4a11628f55a4df523b3ef60405160405180910390a4505050565b61147d848484611216565b61148984848484611765565b6114c8576040517f08c379a00000000000000000000000000000000000000000000000000000000081526004016114bf90612ca6565b60405180910390fd5b50505050565b606060405180602001604052806000815250905090565b60606114f08261100b565b61152f576040517f08c379a000000000000000000000000000000000000000000000000000000000815260040161152690612e26565b60405180910390fd5b60006115396114ce565b905060008151116115595760405180602001604052806000815250611584565b80611563846118fc565b604051602001611574929190612bbe565b6040516020818303038152906040525b915050919050565b6115968383611aa9565b6115a36000848484611765565b6115e2576040517f08c379a00000000000000000000000000000000000000000000000000000000081526004016115d990612ca6565b60405180910390fd5b505050565b60007f01ffc9a7000000000000000000000000000000000000000000000000000000007bffffffffffffffffffffffffffffffffffffffffffffffffffffffff1916827bffffffffffffffffffffffffffffffffffffffffffffffffffffffff1916149050919050565b61165c838383611c77565b600073ffffffffffffffffffffffffffffffffffffffff168373ffffffffffffffffffffffffffffffffffffffff16141561169f5761169a81611c7c565b6116de565b8173ffffffffffffffffffffffffffffffffffffffff168373ffffffffffffffffffffffffffffffffffffffff16146116dd576116dc8382611cc5565b5b5b600073ffffffffffffffffffffffffffffffffffffffff168273ffffffffffffffffffffffffffffffffffffffff1614156117215761171c81611e32565b611760565b8273ffffffffffffffffffffffffffffffffffffffff168273ffffffffffffffffffffffffffffffffffffffff161461175f5761175e8282611f75565b5b5b505050565b60006117868473ffffffffffffffffffffffffffffffffffffffff16611ff4565b156118ef578373ffffffffffffffffffffffffffffffffffffffff1663150b7a026117af611077565b8786866040518563ffffffff1660e01b81526004016117d19493929190612bfd565b602060405180830381600087803b1580156117eb57600080fd5b505af192505050801561181c57506040513d601f19601f8201168201806040525081019061181991906123b3565b60015b61189f573d806000811461184c576040519150601f19603f3d011682016040523d82523d6000602084013e611851565b606091505b50600081511415611897576040517f08c379a000000000000000000000000000000000000000000000000000000000815260040161188e90612ca6565b60405180910390fd5b805181602001fd5b63150b7a0260e01b7bffffffffffffffffffffffffffffffffffffffffffffffffffffffff1916817bffffffffffffffffffffffffffffffffffffffffffffffffffffffff1916149150506118f4565b600190505b949350505050565b60606000821415611944576040518060400160405280600181526020017f30000000000000000000000000000000000000000000000000000000000000008152509050611aa4565b600082905060005b6000821461197657808061195f90613138565b915050600a8261196f9190612feb565b915061194c565b60008167ffffffffffffffff8111156119b8577f4e487b7100000000000000000000000000000000000000000000000000000000600052604160045260246000fd5b6040519080825280601f01601f1916602001820160405280156119ea5781602001600182028036833780820191505090505b5090505b60008514611a9d57600182611a03919061301c565b9150600a85611a129190613181565b6030611a1e9190612f95565b60f81b818381518110611a5a577f4e487b7100000000000000000000000000000000000000000000000000000000600052603260045260246000fd5b60200101907effffffffffffffffffffffffffffffffffffffffffffffffffffffffffffff1916908160001a905350600a85611a969190612feb565b94506119ee565b8093505050505b919050565b600073ffffffffffffffffffffffffffffffffffffffff168273ffffffffffffffffffffffffffffffffffffffff161415611b19576040517f08c379a0000000000000000000000000000000000000000000000000000000008152600401611b1090612da6565b60405180910390fd5b611b228161100b565b15611b62576040517f08c379a0000000000000000000000000000000000000000000000000000000008152600401611b5990612cc6565b60405180910390fd5b611b6e60008383611651565b6001600360008473ffffffffffffffffffffffffffffffffffffffff1673ffffffffffffffffffffffffffffffffffffffff1681526020019081526020016000206000828254611bbe9190612f95565b92505081905550816002600083815260200190815260200160002060006101000a81548173ffffffffffffffffffffffffffffffffffffffff021916908373ffffffffffffffffffffffffffffffffffffffff160217905550808273ffffffffffffffffffffffffffffffffffffffff16600073ffffffffffffffffffffffffffffffffffffffff167fddf252ad1be2c89b69c2b068fc378daa952ba7f163c4a11628f55a4df523b3ef60405160405180910390a45050565b505050565b6008805490506009600083815260200190815260200160002081905550600881908060018154018082558091505060019003906000526020600020016000909190919091505550565b60006001611cd284610964565b611cdc919061301c565b9050600060076000848152602001908152602001600020549050818114611dc1576000600660008673ffffffffffffffffffffffffffffffffffffffff1673ffffffffffffffffffffffffffffffffffffffff168152602001908152602001600020600084815260200190815260200160002054905080600660008773ffffffffffffffffffffffffffffffffffffffff1673ffffffffffffffffffffffffffffffffffffffff168152602001908152602001600020600084815260200190815260200160002081905550816007600083815260200190815260200160002081905550505b6007600084815260200190815260200160002060009055600660008573ffffffffffffffffffffffffffffffffffffffff1673ffffffffffffffffffffffffffffffffffffffff16815260200190815260200160002060008381526020019081526020016000206000905550505050565b60006001600880549050611e46919061301c565b9050600060096000848152602001908152602001600020549050600060088381548110611e9c577f4e487b7100000000000000000000000000000000000000000000000000000000600052603260045260246000fd5b906000526020600020015490508060088381548110611ee4577f4e487b7100000000000000000000000000000000000000000000000000000000600052603260045260246000fd5b906000526020600020018190555081600960008381526020019081526020016000208190555060096000858152602001908152602001600020600090556008805480611f59577f4e487b7100000000000000000000000000000000000000000000000000000000600052603160045260246000fd5b6001900381819060005260206000200160009055905550505050565b6000611f8083610964565b905081600660008573ffffffffffffffffffffffffffffffffffffffff1673ffffffffffffffffffffffffffffffffffffffff168152602001908152602001600020600083815260200190815260200160002081905550806007600084815260200190815260200160002081905550505050565b600080823b905060008111915050919050565b82805461201390613106565b90600052602060002090601f016020900481019282612035576000855561207c565b82601f1061204e57805160ff191683800117855561207c565b8280016001018555821561207c579182015b8281111561207b578251825591602001919060010190612060565b5b509050612089919061208d565b5090565b5b808211156120a657600081600090555060010161208e565b5090565b60006120bd6120b884612ef2565b612ec1565b9050828152602081018484840111156120d557600080fd5b6120e08482856130c4565b509392505050565b60006120fb6120f684612f22565b612ec1565b90508281526020810184848401111561211357600080fd5b61211e8482856130c4565b509392505050565b6000813590506121358161327f565b92915050565b60008135905061214a81613296565b92915050565b60008135905061215f816132ad565b92915050565b600081519050612174816132ad565b92915050565b600082601f83011261218b57600080fd5b813561219b8482602086016120aa565b91505092915050565b600082601f8301126121b557600080fd5b81356121c58482602086016120e8565b91505092915050565b6000813590506121dd816132c4565b92915050565b6000602082840312156121f557600080fd5b600061220384828501612126565b91505092915050565b6000806040838503121561221f57600080fd5b600061222d85828601612126565b925050602061223e85828601612126565b9150509250929050565b60008060006060848603121561225d57600080fd5b600061226b86828701612126565b935050602061227c86828701612126565b925050604061228d868287016121ce565b9150509250925092565b600080600080608085870312156122ad57600080fd5b60006122bb87828801612126565b94505060206122cc87828801612126565b93505060406122dd878288016121ce565b925050606085013567ffffffffffffffff8111156122fa57600080fd5b6123068782880161217a565b91505092959194509250565b6000806040838503121561232557600080fd5b600061233385828601612126565b92505060206123448582860161213b565b9150509250929050565b6000806040838503121561236157600080fd5b600061236f85828601612126565b9250506020612380858286016121ce565b9150509250929050565b60006020828403121561239c57600080fd5b60006123aa84828501612150565b91505092915050565b6000602082840312156123c557600080fd5b60006123d384828501612165565b91505092915050565b6000602082840312156123ee57600080fd5b600082013567ffffffffffffffff81111561240857600080fd5b612414848285016121a4565b91505092915050565b60006020828403121561242f57600080fd5b600061243d848285016121ce565b91505092915050565b6000806040838503121561245957600080fd5b6000612467858286016121ce565b925050602083013567ffffffffffffffff81111561248457600080fd5b612490858286016121a4565b9150509250929050565b6124a381613050565b82525050565b6124b281613062565b82525050565b60006124c382612f52565b6124cd8185612f68565b93506124dd8185602086016130d3565b6124e68161326e565b840191505092915050565b60006124fc82612f5d565b6125068185612f79565b93506125168185602086016130d3565b61251f8161326e565b840191505092915050565b600061253582612f5d565b61253f8185612f8a565b935061254f8185602086016130d3565b80840191505092915050565b6000612568602b83612f79565b91507f455243373231456e756d657261626c653a206f776e657220696e646578206f7560008301527f74206f6620626f756e64730000000000000000000000000000000000000000006020830152604082019050919050565b60006125ce603283612f79565b91507f4552433732313a207472616e7366657220746f206e6f6e20455243373231526560008301527f63656976657220696d706c656d656e74657200000000000000000000000000006020830152604082019050919050565b6000612634601c83612f79565b91507f4552433732313a20746f6b656e20616c7265616479206d696e746564000000006000830152602082019050919050565b6000612674602483612f79565b91507f4552433732313a207472616e7366657220746f20746865207a65726f2061646460008301527f72657373000000000000000000000000000000000000000000000000000000006020830152604082019050919050565b60006126da601983612f79565b91507f4552433732313a20617070726f766520746f2063616c6c6572000000000000006000830152602082019050919050565b600061271a602c83612f79565b91507f4552433732313a206f70657261746f7220717565727920666f72206e6f6e657860008301527f697374656e7420746f6b656e00000000000000000000000000000000000000006020830152604082019050919050565b6000612780603883612f79565b91507f4552433732313a20617070726f76652063616c6c6572206973206e6f74206f7760008301527f6e6572206e6f7220617070726f76656420666f7220616c6c00000000000000006020830152604082019050919050565b60006127e6602a83612f79565b91507f4552433732313a2062616c616e636520717565727920666f7220746865207a6560008301527f726f2061646472657373000000000000000000000000000000000000000000006020830152604082019050919050565b600061284c602983612f79565b91507f4552433732313a206f776e657220717565727920666f72206e6f6e657869737460008301527f656e7420746f6b656e00000000000000000000000000000000000000000000006020830152604082019050919050565b60006128b2602083612f79565b91507f4552433732313a206d696e7420746f20746865207a65726f20616464726573736000830152602082019050919050565b60006128f2603183612f79565b91507f45524337323155524953746f726167653a2055524920717565727920666f722060008301527f6e6f6e6578697374656e7420746f6b656e0000000000000000000000000000006020830152604082019050919050565b6000612958602c83612f79565b91507f4552433732313a20617070726f76656420717565727920666f72206e6f6e657860008301527f697374656e7420746f6b656e00000000000000000000000000000000000000006020830152604082019050919050565b60006129be602983612f79565b91507f4552433732313a207472616e73666572206f6620746f6b656e2074686174206960008301527f73206e6f74206f776e00000000000000000000000000000000000000000000006020830152604082019050919050565b6000612a24602f83612f79565b91507f4552433732314d657461646174613a2055524920717565727920666f72206e6f60008301527f6e6578697374656e7420746f6b656e00000000000000000000000000000000006020830152604082019050919050565b6000612a8a602183612f79565b91507f4552433732313a20617070726f76616c20746f2063757272656e74206f776e6560008301527f72000000000000000000000000000000000000000000000000000000000000006020830152604082019050919050565b6000612af0603183612f79565b91507f4552433732313a207472616e736665722063616c6c6572206973206e6f74206f60008301527f776e6572206e6f7220617070726f7665640000000000000000000000000000006020830152604082019050919050565b6000612b56602c83612f79565b91507f455243373231456e756d657261626c653a20676c6f62616c20696e646578206f60008301527f7574206f6620626f756e647300000000000000000000000000000000000000006020830152604082019050919050565b612bb8816130ba565b82525050565b6000612bca828561252a565b9150612bd6828461252a565b91508190509392505050565b6000602082019050612bf7600083018461249a565b92915050565b6000608082019050612c12600083018761249a565b612c1f602083018661249a565b612c2c6040830185612baf565b8181036060830152612c3e81846124b8565b905095945050505050565b6000602082019050612c5e60008301846124a9565b92915050565b60006020820190508181036000830152612c7e81846124f1565b905092915050565b60006020820190508181036000830152612c9f8161255b565b9050919050565b60006020820190508181036000830152612cbf816125c1565b9050919050565b60006020820190508181036000830152612cdf81612627565b9050919050565b60006020820190508181036000830152612cff81612667565b9050919050565b60006020820190508181036000830152612d1f816126cd565b9050919050565b60006020820190508181036000830152612d3f8161270d565b9050919050565b60006020820190508181036000830152612d5f81612773565b9050919050565b60006020820190508181036000830152612d7f816127d9565b9050919050565b60006020820190508181036000830152612d9f8161283f565b9050919050565b60006020820190508181036000830152612dbf816128a5565b9050919050565b60006020820190508181036000830152612ddf816128e5565b9050919050565b60006020820190508181036000830152612dff8161294b565b9050919050565b60006020820190508181036000830152612e1f816129b1565b9050919050565b60006020820190508181036000830152612e3f81612a17565b9050919050565b60006020820190508181036000830152612e5f81612a7d565b9050919050565b60006020820190508181036000830152612e7f81612ae3565b9050919050565b60006020820190508181036000830152612e9f81612b49565b9050919050565b6000602082019050612ebb6000830184612baf565b92915050565b6000604051905081810181811067ffffffffffffffff82111715612ee857612ee761323f565b5b8060405250919050565b600067ffffffffffffffff821115612f0d57612f0c61323f565b5b601f19601f8301169050602081019050919050565b600067ffffffffffffffff821115612f3d57612f3c61323f565b5b601f19601f8301169050602081019050919050565b600081519050919050565b600081519050919050565b600082825260208201905092915050565b600082825260208201905092915050565b600081905092915050565b6000612fa0826130ba565b9150612fab836130ba565b9250827fffffffffffffffffffffffffffffffffffffffffffffffffffffffffffffffff03821115612fe057612fdf6131b2565b5b828201905092915050565b6000612ff6826130ba565b9150613001836130ba565b925082613011576130106131e1565b5b828204905092915050565b6000613027826130ba565b9150613032836130ba565b925082821015613045576130446131b2565b5b828203905092915050565b600061305b8261309a565b9050919050565b60008115159050919050565b60007fffffffff0000000000000000000000000000000000000000000000000000000082169050919050565b600073ffffffffffffffffffffffffffffffffffffffff82169050919050565b6000819050919050565b82818337600083830152505050565b60005b838110156130f15780820151818401526020810190506130d6565b83811115613100576000848401525b50505050565b6000600282049050600182168061311e57607f821691505b6020821081141561313257613131613210565b5b50919050565b6000613143826130ba565b91507fffffffffffffffffffffffffffffffffffffffffffffffffffffffffffffffff821415613176576131756131b2565b5b600182019050919050565b600061318c826130ba565b9150613197836130ba565b9250826131a7576131a66131e1565b5b828206905092915050565b7f4e487b7100000000000000000000000000000000000000000000000000000000600052601160045260246000fd5b7f4e487b7100000000000000000000000000000000000000000000000000000000600052601260045260246000fd5b7f4e487b7100000000000000000000000000000000000000000000000000000000600052602260045260246000fd5b7f4e487b7100000000000000000000000000000000000000000000000000000000600052604160045260246000fd5b6000601f19601f8301169050919050565b61328881613050565b811461329357600080fd5b50565b61329f81613062565b81146132aa57600080fd5b50565b6132b68161306e565b81146132c157600080fd5b50565b6132cd816130ba565b81146132d857600080fd5b5056fea26469706673582212206844877ab9d484325fadf78acdd684b36ec0d9b79fed3ddffa55dea187ca213664736f6c63430008000033",
  "immutableReferences": {},
  "source": "// SPDX-License-Identifier: MIT\r\npragma solidity ^0.8.0;\r\n\r\nimport '@openzeppelin/contracts/token/ERC721/extensions/ERC721Enumerable.sol';\r\n\r\ncontract TreeSpotNFT is ERC721Enumerable {\r\n    \r\n    struct TokenAttr {\r\n        uint256 width;\r\n        string letter;\r\n        string tokenURI;\r\n    }\r\n    mapping (uint256 => TokenAttr) _tokenAttributes;    \r\n\r\n    constructor() ERC721(\"TreeSpotNFT\", \"TSN\") {\r\n\r\n    }\r\n\r\n    function mint(string memory text) public {\r\n        uint256 tokenId = ERC721Enumerable.totalSupply();\r\n        _safeMint(msg.sender, tokenId, '');\r\n        _tokenAttributes[tokenId] = TokenAttr(bytes(text).length, text, \"\");\r\n    }\r\n\r\n    function changeLetter(uint256 tokenId, string memory newLetter) public {\r\n        require (msg.sender == ERC721.ownerOf(tokenId));\r\n\r\n        TokenAttr storage tokenAttr = _tokenAttributes[tokenId];\r\n        \r\n        require(tokenAttr.width >= bytes(newLetter).length);\r\n        tokenAttr.letter = newLetter;\r\n    }\r\n\r\n    /**\r\n     * @dev See {IERC721Metadata-tokenURI}.\r\n     */\r\n    function tokenURI(uint256 tokenId) public view virtual override returns (string memory) {\r\n        require(_exists(tokenId), \"ERC721URIStorage: URI query for nonexistent token\");\r\n\r\n        string memory _tokenURI = _tokenAttributes[tokenId].tokenURI;\r\n        string memory base = _baseURI();\r\n\r\n        // If there is no base URI, return the token URI.\r\n        if (bytes(base).length == 0) {\r\n            return _tokenURI;\r\n        }\r\n        // If both are set, concatenate the baseURI and tokenURI (via abi.encodePacked).\r\n        if (bytes(_tokenURI).length > 0) {\r\n            return string(abi.encodePacked(base, _tokenURI));\r\n        }\r\n\r\n        return super.tokenURI(tokenId);\r\n    }\r\n\r\n    /**\r\n     * @dev Sets `_tokenURI` as the tokenURI of `tokenId`.\r\n     *\r\n     * Requirements:\r\n     *\r\n     * - `tokenId` must exist.\r\n     */\r\n    function _setTokenURI(uint256 tokenId, string memory _tokenURI) internal virtual {\r\n        require(_exists(tokenId), \"ERC721URIStorage: URI set of nonexistent token\");\r\n        require(msg.sender == ERC721.ownerOf(tokenId));\r\n        TokenAttr storage tokenAttr = _tokenAttributes[tokenId];\r\n        tokenAttr.tokenURI = _tokenURI;\r\n    }\r\n\r\n}",
  "sourcePath": "E:\\Blockchain\\TreeSpotNft\\contracts\\TreeSpotNFT.sol",
  "compiler": {
    "name": "solc",
    "version": "0.8.0+commit.c7dfd78e.Emscripten.clang"
  },
  "schemaVersion": "3.4.3",
  "updatedAt": "2021-10-04T17:30:15.940Z",
  "devdoc": {
    "kind": "dev",
    "methods": {
      "approve(address,uint256)": {
        "details": "See {IERC721-approve}."
      },
      "balanceOf(address)": {
        "details": "See {IERC721-balanceOf}."
      },
      "getApproved(uint256)": {
        "details": "See {IERC721-getApproved}."
      },
      "isApprovedForAll(address,address)": {
        "details": "See {IERC721-isApprovedForAll}."
      },
      "name()": {
        "details": "See {IERC721Metadata-name}."
      },
      "ownerOf(uint256)": {
        "details": "See {IERC721-ownerOf}."
      },
      "safeTransferFrom(address,address,uint256)": {
        "details": "See {IERC721-safeTransferFrom}."
      },
      "safeTransferFrom(address,address,uint256,bytes)": {
        "details": "See {IERC721-safeTransferFrom}."
      },
      "setApprovalForAll(address,bool)": {
        "details": "See {IERC721-setApprovalForAll}."
      },
      "supportsInterface(bytes4)": {
        "details": "See {IERC165-supportsInterface}."
      },
      "symbol()": {
        "details": "See {IERC721Metadata-symbol}."
      },
      "tokenByIndex(uint256)": {
        "details": "See {IERC721Enumerable-tokenByIndex}."
      },
      "tokenOfOwnerByIndex(address,uint256)": {
        "details": "See {IERC721Enumerable-tokenOfOwnerByIndex}."
      },
      "tokenURI(uint256)": {
        "details": "See {IERC721Metadata-tokenURI}."
      },
      "totalSupply()": {
        "details": "See {IERC721Enumerable-totalSupply}."
      },
      "transferFrom(address,address,uint256)": {
        "details": "See {IERC721-transferFrom}."
      }
    },
    "version": 1
  },
  "userdoc": {
    "kind": "user",
    "methods": {},
    "version": 1
  }
}